{
  "_format": "hh-sol-artifact-1",
  "contractName": "MedToken2",
  "sourceName": "contracts/med-token2.sol",
  "abi": [
    {
      "inputs": [],
      "stateMutability": "nonpayable",
      "type": "constructor"
    },
    {
      "anonymous": false,
      "inputs": [
        {
          "indexed": true,
          "internalType": "address",
          "name": "owner",
          "type": "address"
        },
        {
          "indexed": true,
          "internalType": "address",
          "name": "approved",
          "type": "address"
        },
        {
          "indexed": true,
          "internalType": "uint256",
          "name": "tokenId",
          "type": "uint256"
        }
      ],
      "name": "Approval",
      "type": "event"
    },
    {
      "anonymous": false,
      "inputs": [
        {
          "indexed": true,
          "internalType": "address",
          "name": "owner",
          "type": "address"
        },
        {
          "indexed": true,
          "internalType": "address",
          "name": "operator",
          "type": "address"
        },
        {
          "indexed": false,
          "internalType": "bool",
          "name": "approved",
          "type": "bool"
        }
      ],
      "name": "ApprovalForAll",
      "type": "event"
    },
    {
      "anonymous": false,
      "inputs": [
        {
          "indexed": true,
          "internalType": "address",
          "name": "previousOwner",
          "type": "address"
        },
        {
          "indexed": true,
          "internalType": "address",
          "name": "newOwner",
          "type": "address"
        }
      ],
      "name": "OwnershipTransferred",
      "type": "event"
    },
    {
      "anonymous": false,
      "inputs": [
        {
          "indexed": true,
          "internalType": "address",
          "name": "from",
          "type": "address"
        },
        {
          "indexed": true,
          "internalType": "address",
          "name": "to",
          "type": "address"
        },
        {
          "indexed": true,
          "internalType": "uint256",
          "name": "tokenId",
          "type": "uint256"
        }
      ],
      "name": "Transfer",
      "type": "event"
    },
    {
      "inputs": [
        {
          "internalType": "address",
          "name": "to",
          "type": "address"
        },
        {
          "internalType": "uint256",
          "name": "tokenId",
          "type": "uint256"
        }
      ],
      "name": "approve",
      "outputs": [],
      "stateMutability": "nonpayable",
      "type": "function"
    },
    {
      "inputs": [
        {
          "internalType": "address",
          "name": "owner",
          "type": "address"
        }
      ],
      "name": "balanceOf",
      "outputs": [
        {
          "internalType": "uint256",
          "name": "",
          "type": "uint256"
        }
      ],
      "stateMutability": "view",
      "type": "function"
    },
    {
      "inputs": [
        {
          "internalType": "uint256",
          "name": "tokenId",
          "type": "uint256"
        }
      ],
      "name": "getApproved",
      "outputs": [
        {
          "internalType": "address",
          "name": "",
          "type": "address"
        }
      ],
      "stateMutability": "view",
      "type": "function"
    },
    {
      "inputs": [
        {
          "internalType": "address",
          "name": "owner",
          "type": "address"
        },
        {
          "internalType": "address",
          "name": "operator",
          "type": "address"
        }
      ],
      "name": "isApprovedForAll",
      "outputs": [
        {
          "internalType": "bool",
          "name": "",
          "type": "bool"
        }
      ],
      "stateMutability": "view",
      "type": "function"
    },
    {
      "inputs": [],
      "name": "name",
      "outputs": [
        {
          "internalType": "string",
          "name": "",
          "type": "string"
        }
      ],
      "stateMutability": "view",
      "type": "function"
    },
    {
      "inputs": [],
      "name": "owner",
      "outputs": [
        {
          "internalType": "address",
          "name": "",
          "type": "address"
        }
      ],
      "stateMutability": "view",
      "type": "function"
    },
    {
      "inputs": [
        {
          "internalType": "uint256",
          "name": "tokenId",
          "type": "uint256"
        }
      ],
      "name": "ownerOf",
      "outputs": [
        {
          "internalType": "address",
          "name": "",
          "type": "address"
        }
      ],
      "stateMutability": "view",
      "type": "function"
    },
    {
      "inputs": [],
      "name": "renounceOwnership",
      "outputs": [],
      "stateMutability": "nonpayable",
      "type": "function"
    },
    {
      "inputs": [
        {
          "internalType": "address",
          "name": "to",
          "type": "address"
        },
        {
          "internalType": "uint256",
          "name": "tokenId",
          "type": "uint256"
        }
      ],
      "name": "safeMint",
      "outputs": [],
      "stateMutability": "nonpayable",
      "type": "function"
    },
    {
      "inputs": [
        {
          "internalType": "address",
          "name": "from",
          "type": "address"
        },
        {
          "internalType": "address",
          "name": "to",
          "type": "address"
        },
        {
          "internalType": "uint256",
          "name": "tokenId",
          "type": "uint256"
        }
      ],
      "name": "safeTransferFrom",
      "outputs": [],
      "stateMutability": "nonpayable",
      "type": "function"
    },
    {
      "inputs": [
        {
          "internalType": "address",
          "name": "from",
          "type": "address"
        },
        {
          "internalType": "address",
          "name": "to",
          "type": "address"
        },
        {
          "internalType": "uint256",
          "name": "tokenId",
          "type": "uint256"
        },
        {
          "internalType": "bytes",
          "name": "data",
          "type": "bytes"
        }
      ],
      "name": "safeTransferFrom",
      "outputs": [],
      "stateMutability": "nonpayable",
      "type": "function"
    },
    {
      "inputs": [
        {
          "internalType": "address",
          "name": "operator",
          "type": "address"
        },
        {
          "internalType": "bool",
          "name": "approved",
          "type": "bool"
        }
      ],
      "name": "setApprovalForAll",
      "outputs": [],
      "stateMutability": "nonpayable",
      "type": "function"
    },
    {
      "inputs": [
        {
          "internalType": "bytes4",
          "name": "interfaceId",
          "type": "bytes4"
        }
      ],
      "name": "supportsInterface",
      "outputs": [
        {
          "internalType": "bool",
          "name": "",
          "type": "bool"
        }
      ],
      "stateMutability": "view",
      "type": "function"
    },
    {
      "inputs": [],
      "name": "symbol",
      "outputs": [
        {
          "internalType": "string",
          "name": "",
          "type": "string"
        }
      ],
      "stateMutability": "view",
      "type": "function"
    },
    {
      "inputs": [
        {
          "internalType": "uint256",
          "name": "tokenId",
          "type": "uint256"
        }
      ],
      "name": "tokenURI",
      "outputs": [
        {
          "internalType": "string",
          "name": "",
          "type": "string"
        }
      ],
      "stateMutability": "view",
      "type": "function"
    },
    {
      "inputs": [
        {
          "internalType": "address",
          "name": "from",
          "type": "address"
        },
        {
          "internalType": "address",
          "name": "to",
          "type": "address"
        },
        {
          "internalType": "uint256",
          "name": "tokenId",
          "type": "uint256"
        }
      ],
      "name": "transferFrom",
      "outputs": [],
      "stateMutability": "nonpayable",
      "type": "function"
    },
    {
      "inputs": [
        {
          "internalType": "address",
          "name": "newOwner",
          "type": "address"
        }
      ],
      "name": "transferOwnership",
      "outputs": [],
      "stateMutability": "nonpayable",
      "type": "function"
    }
  ],
  "bytecode": "0x60806040523480156200001157600080fd5b506040518060400160405280600a81526020017f4d65642d746f6b656e32000000000000000000000000000000000000000000008152506040518060400160405280600381526020017f4d444b0000000000000000000000000000000000000000000000000000000000815250816000908051906020019062000096929190620001a6565b508060019080519060200190620000af929190620001a6565b505050620000d2620000c6620000d860201b60201c565b620000e060201b60201c565b620002bb565b600033905090565b6000600660009054906101000a900473ffffffffffffffffffffffffffffffffffffffff16905081600660006101000a81548173ffffffffffffffffffffffffffffffffffffffff021916908373ffffffffffffffffffffffffffffffffffffffff1602179055508173ffffffffffffffffffffffffffffffffffffffff168173ffffffffffffffffffffffffffffffffffffffff167f8be0079c531659141344cd1fd0a4f28419497f9722a3daafe3b4186f6b6457e060405160405180910390a35050565b828054620001b49062000285565b90600052602060002090601f016020900481019282620001d8576000855562000224565b82601f10620001f357805160ff191683800117855562000224565b8280016001018555821562000224579182015b828111156200022357825182559160200191906001019062000206565b5b50905062000233919062000237565b5090565b5b808211156200025257600081600090555060010162000238565b5090565b7f4e487b7100000000000000000000000000000000000000000000000000000000600052602260045260246000fd5b600060028204905060018216806200029e57607f821691505b60208210811415620002b557620002b462000256565b5b50919050565b612a4780620002cb6000396000f3fe608060405234801561001057600080fd5b506004361061010b5760003560e01c8063715018a6116100a2578063a22cb46511610071578063a22cb465146102a4578063b88d4fde146102c0578063c87b56dd146102dc578063e985e9c51461030c578063f2fde38b1461033c5761010b565b8063715018a6146102425780638da5cb5b1461024c57806395d89b411461026a578063a1448194146102885761010b565b806323b872dd116100de57806323b872dd146101aa57806342842e0e146101c65780636352211e146101e257806370a08231146102125761010b565b806301ffc9a71461011057806306fdde0314610140578063081812fc1461015e578063095ea7b31461018e575b600080fd5b61012a60048036038101906101259190611b82565b610358565b6040516101379190611bca565b60405180910390f35b61014861043a565b6040516101559190611c7e565b60405180910390f35b61017860048036038101906101739190611cd6565b6104cc565b6040516101859190611d44565b60405180910390f35b6101a860048036038101906101a39190611d8b565b610512565b005b6101c460048036038101906101bf9190611dcb565b61062a565b005b6101e060048036038101906101db9190611dcb565b61068a565b005b6101fc60048036038101906101f79190611cd6565b6106aa565b6040516102099190611d44565b60405180910390f35b61022c60048036038101906102279190611e1e565b610731565b6040516102399190611e5a565b60405180910390f35b61024a6107e9565b005b6102546107fd565b6040516102619190611d44565b60405180910390f35b610272610827565b60405161027f9190611c7e565b60405180910390f35b6102a2600480360381019061029d9190611d8b565b6108b9565b005b6102be60048036038101906102b99190611ea1565b6108cf565b005b6102da60048036038101906102d59190612016565b6108e5565b005b6102f660048036038101906102f19190611cd6565b610947565b6040516103039190611c7e565b60405180910390f35b61032660048036038101906103219190612099565b6109af565b6040516103339190611bca565b60405180910390f35b61035660048036038101906103519190611e1e565b610a43565b005b60007f80ac58cd000000000000000000000000000000000000000000000000000000007bffffffffffffffffffffffffffffffffffffffffffffffffffffffff1916827bffffffffffffffffffffffffffffffffffffffffffffffffffffffff1916148061042357507f5b5e139f000000000000000000000000000000000000000000000000000000007bffffffffffffffffffffffffffffffffffffffffffffffffffffffff1916827bffffffffffffffffffffffffffffffffffffffffffffffffffffffff1916145b80610433575061043282610ac7565b5b9050919050565b60606000805461044990612108565b80601f016020809104026020016040519081016040528092919081815260200182805461047590612108565b80156104c25780601f10610497576101008083540402835291602001916104c2565b820191906000526020600020905b8154815290600101906020018083116104a557829003601f168201915b5050505050905090565b60006104d782610b31565b6004600083815260200190815260200160002060009054906101000a900473ffffffffffffffffffffffffffffffffffffffff169050919050565b600061051d826106aa565b90508073ffffffffffffffffffffffffffffffffffffffff168373ffffffffffffffffffffffffffffffffffffffff16141561058e576040517f08c379a0000000000000000000000000000000000000000000000000000000008152600401610585906121ac565b60405180910390fd5b8073ffffffffffffffffffffffffffffffffffffffff166105ad610b7c565b73ffffffffffffffffffffffffffffffffffffffff1614806105dc57506105db816105d6610b7c565b6109af565b5b61061b576040517f08c379a00000000000000000000000000000000000000000000000000000000081526004016106129061223e565b60405180910390fd5b6106258383610b84565b505050565b61063b610635610b7c565b82610c3d565b61067a576040517f08c379a0000000000000000000000000000000000000000000000000000000008152600401610671906122d0565b60405180910390fd5b610685838383610cd2565b505050565b6106a5838383604051806020016040528060008152506108e5565b505050565b6000806106b683610fcc565b9050600073ffffffffffffffffffffffffffffffffffffffff168173ffffffffffffffffffffffffffffffffffffffff161415610728576040517f08c379a000000000000000000000000000000000000000000000000000000000815260040161071f9061233c565b60405180910390fd5b80915050919050565b60008073ffffffffffffffffffffffffffffffffffffffff168273ffffffffffffffffffffffffffffffffffffffff1614156107a2576040517f08c379a0000000000000000000000000000000000000000000000000000000008152600401610799906123ce565b60405180910390fd5b600360008373ffffffffffffffffffffffffffffffffffffffff1673ffffffffffffffffffffffffffffffffffffffff168152602001908152602001600020549050919050565b6107f1611009565b6107fb6000611087565b565b6000600660009054906101000a900473ffffffffffffffffffffffffffffffffffffffff16905090565b60606001805461083690612108565b80601f016020809104026020016040519081016040528092919081815260200182805461086290612108565b80156108af5780601f10610884576101008083540402835291602001916108af565b820191906000526020600020905b81548152906001019060200180831161089257829003601f168201915b5050505050905090565b6108c1611009565b6108cb828261114d565b5050565b6108e16108da610b7c565b838361116b565b5050565b6108f66108f0610b7c565b83610c3d565b610935576040517f08c379a000000000000000000000000000000000000000000000000000000000815260040161092c906122d0565b60405180910390fd5b610941848484846112d8565b50505050565b606061095282610b31565b600061095c611334565b9050600081511161097c57604051806020016040528060008152506109a7565b806109868461134b565b60405160200161099792919061242a565b6040516020818303038152906040525b915050919050565b6000600560008473ffffffffffffffffffffffffffffffffffffffff1673ffffffffffffffffffffffffffffffffffffffff16815260200190815260200160002060008373ffffffffffffffffffffffffffffffffffffffff1673ffffffffffffffffffffffffffffffffffffffff16815260200190815260200160002060009054906101000a900460ff16905092915050565b610a4b611009565b600073ffffffffffffffffffffffffffffffffffffffff168173ffffffffffffffffffffffffffffffffffffffff161415610abb576040517f08c379a0000000000000000000000000000000000000000000000000000000008152600401610ab2906124c0565b60405180910390fd5b610ac481611087565b50565b60007f01ffc9a7000000000000000000000000000000000000000000000000000000007bffffffffffffffffffffffffffffffffffffffffffffffffffffffff1916827bffffffffffffffffffffffffffffffffffffffffffffffffffffffff1916149050919050565b610b3a81611423565b610b79576040517f08c379a0000000000000000000000000000000000000000000000000000000008152600401610b709061233c565b60405180910390fd5b50565b600033905090565b816004600083815260200190815260200160002060006101000a81548173ffffffffffffffffffffffffffffffffffffffff021916908373ffffffffffffffffffffffffffffffffffffffff160217905550808273ffffffffffffffffffffffffffffffffffffffff16610bf7836106aa565b73ffffffffffffffffffffffffffffffffffffffff167f8c5be1e5ebec7d5bd14f71427d1e84f3dd0314c0f7b2291e5b200ac8c7c3b92560405160405180910390a45050565b600080610c49836106aa565b90508073ffffffffffffffffffffffffffffffffffffffff168473ffffffffffffffffffffffffffffffffffffffff161480610c8b5750610c8a81856109af565b5b80610cc957508373ffffffffffffffffffffffffffffffffffffffff16610cb1846104cc565b73ffffffffffffffffffffffffffffffffffffffff16145b91505092915050565b8273ffffffffffffffffffffffffffffffffffffffff16610cf2826106aa565b73ffffffffffffffffffffffffffffffffffffffff1614610d48576040517f08c379a0000000000000000000000000000000000000000000000000000000008152600401610d3f90612552565b60405180910390fd5b600073ffffffffffffffffffffffffffffffffffffffff168273ffffffffffffffffffffffffffffffffffffffff161415610db8576040517f08c379a0000000000000000000000000000000000000000000000000000000008152600401610daf906125e4565b60405180910390fd5b610dc58383836001611464565b8273ffffffffffffffffffffffffffffffffffffffff16610de5826106aa565b73ffffffffffffffffffffffffffffffffffffffff1614610e3b576040517f08c379a0000000000000000000000000000000000000000000000000000000008152600401610e3290612552565b60405180910390fd5b6004600082815260200190815260200160002060006101000a81549073ffffffffffffffffffffffffffffffffffffffff02191690556001600360008573ffffffffffffffffffffffffffffffffffffffff1673ffffffffffffffffffffffffffffffffffffffff168152602001908152602001600020600082825403925050819055506001600360008473ffffffffffffffffffffffffffffffffffffffff1673ffffffffffffffffffffffffffffffffffffffff16815260200190815260200160002060008282540192505081905550816002600083815260200190815260200160002060006101000a81548173ffffffffffffffffffffffffffffffffffffffff021916908373ffffffffffffffffffffffffffffffffffffffff160217905550808273ffffffffffffffffffffffffffffffffffffffff168473ffffffffffffffffffffffffffffffffffffffff167fddf252ad1be2c89b69c2b068fc378daa952ba7f163c4a11628f55a4df523b3ef60405160405180910390a4610fc7838383600161158a565b505050565b60006002600083815260200190815260200160002060009054906101000a900473ffffffffffffffffffffffffffffffffffffffff169050919050565b611011610b7c565b73ffffffffffffffffffffffffffffffffffffffff1661102f6107fd565b73ffffffffffffffffffffffffffffffffffffffff1614611085576040517f08c379a000000000000000000000000000000000000000000000000000000000815260040161107c90612650565b60405180910390fd5b565b6000600660009054906101000a900473ffffffffffffffffffffffffffffffffffffffff16905081600660006101000a81548173ffffffffffffffffffffffffffffffffffffffff021916908373ffffffffffffffffffffffffffffffffffffffff1602179055508173ffffffffffffffffffffffffffffffffffffffff168173ffffffffffffffffffffffffffffffffffffffff167f8be0079c531659141344cd1fd0a4f28419497f9722a3daafe3b4186f6b6457e060405160405180910390a35050565b611167828260405180602001604052806000815250611590565b5050565b8173ffffffffffffffffffffffffffffffffffffffff168373ffffffffffffffffffffffffffffffffffffffff1614156111da576040517f08c379a00000000000000000000000000000000000000000000000000000000081526004016111d1906126bc565b60405180910390fd5b80600560008573ffffffffffffffffffffffffffffffffffffffff1673ffffffffffffffffffffffffffffffffffffffff16815260200190815260200160002060008473ffffffffffffffffffffffffffffffffffffffff1673ffffffffffffffffffffffffffffffffffffffff16815260200190815260200160002060006101000a81548160ff0219169083151502179055508173ffffffffffffffffffffffffffffffffffffffff168373ffffffffffffffffffffffffffffffffffffffff167f17307eab39ab6107e8899845ad3d59bd9653f200f220920489ca2b5937696c31836040516112cb9190611bca565b60405180910390a3505050565b6112e3848484610cd2565b6112ef848484846115eb565b61132e576040517f08c379a00000000000000000000000000000000000000000000000000000000081526004016113259061274e565b60405180910390fd5b50505050565b606060405180602001604052806000815250905090565b60606000600161135a84611782565b01905060008167ffffffffffffffff81111561137957611378611eeb565b5b6040519080825280601f01601f1916602001820160405280156113ab5781602001600182028036833780820191505090505b509050600082602001820190505b600115611418578080600190039150507f3031323334353637383961626364656600000000000000000000000000000000600a86061a8153600a85816114025761140161276e565b5b049450600085141561141357611418565b6113b9565b819350505050919050565b60008073ffffffffffffffffffffffffffffffffffffffff1661144583610fcc565b73ffffffffffffffffffffffffffffffffffffffff1614159050919050565b600181111561158457600073ffffffffffffffffffffffffffffffffffffffff168473ffffffffffffffffffffffffffffffffffffffff16146114f85780600360008673ffffffffffffffffffffffffffffffffffffffff1673ffffffffffffffffffffffffffffffffffffffff16815260200190815260200160002060008282546114f091906127cc565b925050819055505b600073ffffffffffffffffffffffffffffffffffffffff168373ffffffffffffffffffffffffffffffffffffffff16146115835780600360008573ffffffffffffffffffffffffffffffffffffffff1673ffffffffffffffffffffffffffffffffffffffff168152602001908152602001600020600082825461157b9190612800565b925050819055505b5b50505050565b50505050565b61159a83836118d5565b6115a760008484846115eb565b6115e6576040517f08c379a00000000000000000000000000000000000000000000000000000000081526004016115dd9061274e565b60405180910390fd5b505050565b600061160c8473ffffffffffffffffffffffffffffffffffffffff16611af3565b15611775578373ffffffffffffffffffffffffffffffffffffffff1663150b7a02611635610b7c565b8786866040518563ffffffff1660e01b815260040161165794939291906128ab565b602060405180830381600087803b15801561167157600080fd5b505af19250505080156116a257506040513d601f19601f8201168201806040525081019061169f919061290c565b60015b611725573d80600081146116d2576040519150601f19603f3d011682016040523d82523d6000602084013e6116d7565b606091505b5060008151141561171d576040517f08c379a00000000000000000000000000000000000000000000000000000000081526004016117149061274e565b60405180910390fd5b805181602001fd5b63150b7a0260e01b7bffffffffffffffffffffffffffffffffffffffffffffffffffffffff1916817bffffffffffffffffffffffffffffffffffffffffffffffffffffffff19161491505061177a565b600190505b949350505050565b600080600090507a184f03e93ff9f4daa797ed6e38ed64bf6a1f01000000000000000083106117e0577a184f03e93ff9f4daa797ed6e38ed64bf6a1f01000000000000000083816117d6576117d561276e565b5b0492506040810190505b6d04ee2d6d415b85acef8100000000831061181d576d04ee2d6d415b85acef810000000083816118135761181261276e565b5b0492506020810190505b662386f26fc10000831061184c57662386f26fc1000083816118425761184161276e565b5b0492506010810190505b6305f5e1008310611875576305f5e100838161186b5761186a61276e565b5b0492506008810190505b612710831061189a5761271083816118905761188f61276e565b5b0492506004810190505b606483106118bd57606483816118b3576118b261276e565b5b0492506002810190505b600a83106118cc576001810190505b80915050919050565b600073ffffffffffffffffffffffffffffffffffffffff168273ffffffffffffffffffffffffffffffffffffffff161415611945576040517f08c379a000000000000000000000000000000000000000000000000000000000815260040161193c90612985565b60405180910390fd5b61194e81611423565b1561198e576040517f08c379a0000000000000000000000000000000000000000000000000000000008152600401611985906129f1565b60405180910390fd5b61199c600083836001611464565b6119a581611423565b156119e5576040517f08c379a00000000000000000000000000000000000000000000000000000000081526004016119dc906129f1565b60405180910390fd5b6001600360008473ffffffffffffffffffffffffffffffffffffffff1673ffffffffffffffffffffffffffffffffffffffff16815260200190815260200160002060008282540192505081905550816002600083815260200190815260200160002060006101000a81548173ffffffffffffffffffffffffffffffffffffffff021916908373ffffffffffffffffffffffffffffffffffffffff160217905550808273ffffffffffffffffffffffffffffffffffffffff16600073ffffffffffffffffffffffffffffffffffffffff167fddf252ad1be2c89b69c2b068fc378daa952ba7f163c4a11628f55a4df523b3ef60405160405180910390a4611aef60008383600161158a565b5050565b6000808273ffffffffffffffffffffffffffffffffffffffff163b119050919050565b6000604051905090565b600080fd5b600080fd5b60007fffffffff0000000000000000000000000000000000000000000000000000000082169050919050565b611b5f81611b2a565b8114611b6a57600080fd5b50565b600081359050611b7c81611b56565b92915050565b600060208284031215611b9857611b97611b20565b5b6000611ba684828501611b6d565b91505092915050565b60008115159050919050565b611bc481611baf565b82525050565b6000602082019050611bdf6000830184611bbb565b92915050565b600081519050919050565b600082825260208201905092915050565b60005b83811015611c1f578082015181840152602081019050611c04565b83811115611c2e576000848401525b50505050565b6000601f19601f8301169050919050565b6000611c5082611be5565b611c5a8185611bf0565b9350611c6a818560208601611c01565b611c7381611c34565b840191505092915050565b60006020820190508181036000830152611c988184611c45565b905092915050565b6000819050919050565b611cb381611ca0565b8114611cbe57600080fd5b50565b600081359050611cd081611caa565b92915050565b600060208284031215611cec57611ceb611b20565b5b6000611cfa84828501611cc1565b91505092915050565b600073ffffffffffffffffffffffffffffffffffffffff82169050919050565b6000611d2e82611d03565b9050919050565b611d3e81611d23565b82525050565b6000602082019050611d596000830184611d35565b92915050565b611d6881611d23565b8114611d7357600080fd5b50565b600081359050611d8581611d5f565b92915050565b60008060408385031215611da257611da1611b20565b5b6000611db085828601611d76565b9250506020611dc185828601611cc1565b9150509250929050565b600080600060608486031215611de457611de3611b20565b5b6000611df286828701611d76565b9350506020611e0386828701611d76565b9250506040611e1486828701611cc1565b9150509250925092565b600060208284031215611e3457611e33611b20565b5b6000611e4284828501611d76565b91505092915050565b611e5481611ca0565b82525050565b6000602082019050611e6f6000830184611e4b565b92915050565b611e7e81611baf565b8114611e8957600080fd5b50565b600081359050611e9b81611e75565b92915050565b60008060408385031215611eb857611eb7611b20565b5b6000611ec685828601611d76565b9250506020611ed785828601611e8c565b9150509250929050565b600080fd5b600080fd5b7f4e487b7100000000000000000000000000000000000000000000000000000000600052604160045260246000fd5b611f2382611c34565b810181811067ffffffffffffffff82111715611f4257611f41611eeb565b5b80604052505050565b6000611f55611b16565b9050611f618282611f1a565b919050565b600067ffffffffffffffff821115611f8157611f80611eeb565b5b611f8a82611c34565b9050602081019050919050565b82818337600083830152505050565b6000611fb9611fb484611f66565b611f4b565b905082815260208101848484011115611fd557611fd4611ee6565b5b611fe0848285611f97565b509392505050565b600082601f830112611ffd57611ffc611ee1565b5b813561200d848260208601611fa6565b91505092915050565b600080600080608085870312156120305761202f611b20565b5b600061203e87828801611d76565b945050602061204f87828801611d76565b935050604061206087828801611cc1565b925050606085013567ffffffffffffffff81111561208157612080611b25565b5b61208d87828801611fe8565b91505092959194509250565b600080604083850312156120b0576120af611b20565b5b60006120be85828601611d76565b92505060206120cf85828601611d76565b9150509250929050565b7f4e487b7100000000000000000000000000000000000000000000000000000000600052602260045260246000fd5b6000600282049050600182168061212057607f821691505b60208210811415612134576121336120d9565b5b50919050565b7f4552433732313a20617070726f76616c20746f2063757272656e74206f776e6560008201527f7200000000000000000000000000000000000000000000000000000000000000602082015250565b6000612196602183611bf0565b91506121a18261213a565b604082019050919050565b600060208201905081810360008301526121c581612189565b9050919050565b7f4552433732313a20617070726f76652063616c6c6572206973206e6f7420746f60008201527f6b656e206f776e6572206f7220617070726f76656420666f7220616c6c000000602082015250565b6000612228603d83611bf0565b9150612233826121cc565b604082019050919050565b600060208201905081810360008301526122578161221b565b9050919050565b7f4552433732313a2063616c6c6572206973206e6f7420746f6b656e206f776e6560008201527f72206f7220617070726f76656400000000000000000000000000000000000000602082015250565b60006122ba602d83611bf0565b91506122c58261225e565b604082019050919050565b600060208201905081810360008301526122e9816122ad565b9050919050565b7f4552433732313a20696e76616c696420746f6b656e2049440000000000000000600082015250565b6000612326601883611bf0565b9150612331826122f0565b602082019050919050565b6000602082019050818103600083015261235581612319565b9050919050565b7f4552433732313a2061646472657373207a65726f206973206e6f74206120766160008201527f6c6964206f776e65720000000000000000000000000000000000000000000000602082015250565b60006123b8602983611bf0565b91506123c38261235c565b604082019050919050565b600060208201905081810360008301526123e7816123ab565b9050919050565b600081905092915050565b600061240482611be5565b61240e81856123ee565b935061241e818560208601611c01565b80840191505092915050565b600061243682856123f9565b915061244282846123f9565b91508190509392505050565b7f4f776e61626c653a206e6577206f776e657220697320746865207a65726f206160008201527f6464726573730000000000000000000000000000000000000000000000000000602082015250565b60006124aa602683611bf0565b91506124b58261244e565b604082019050919050565b600060208201905081810360008301526124d98161249d565b9050919050565b7f4552433732313a207472616e736665722066726f6d20696e636f72726563742060008201527f6f776e6572000000000000000000000000000000000000000000000000000000602082015250565b600061253c602583611bf0565b9150612547826124e0565b604082019050919050565b6000602082019050818103600083015261256b8161252f565b9050919050565b7f4552433732313a207472616e7366657220746f20746865207a65726f2061646460008201527f7265737300000000000000000000000000000000000000000000000000000000602082015250565b60006125ce602483611bf0565b91506125d982612572565b604082019050919050565b600060208201905081810360008301526125fd816125c1565b9050919050565b7f4f776e61626c653a2063616c6c6572206973206e6f7420746865206f776e6572600082015250565b600061263a602083611bf0565b915061264582612604565b602082019050919050565b600060208201905081810360008301526126698161262d565b9050919050565b7f4552433732313a20617070726f766520746f2063616c6c657200000000000000600082015250565b60006126a6601983611bf0565b91506126b182612670565b602082019050919050565b600060208201905081810360008301526126d581612699565b9050919050565b7f4552433732313a207472616e7366657220746f206e6f6e20455243373231526560008201527f63656976657220696d706c656d656e7465720000000000000000000000000000602082015250565b6000612738603283611bf0565b9150612743826126dc565b604082019050919050565b600060208201905081810360008301526127678161272b565b9050919050565b7f4e487b7100000000000000000000000000000000000000000000000000000000600052601260045260246000fd5b7f4e487b7100000000000000000000000000000000000000000000000000000000600052601160045260246000fd5b60006127d782611ca0565b91506127e283611ca0565b9250828210156127f5576127f461279d565b5b828203905092915050565b600061280b82611ca0565b915061281683611ca0565b9250827fffffffffffffffffffffffffffffffffffffffffffffffffffffffffffffffff0382111561284b5761284a61279d565b5b828201905092915050565b600081519050919050565b600082825260208201905092915050565b600061287d82612856565b6128878185612861565b9350612897818560208601611c01565b6128a081611c34565b840191505092915050565b60006080820190506128c06000830187611d35565b6128cd6020830186611d35565b6128da6040830185611e4b565b81810360608301526128ec8184612872565b905095945050505050565b60008151905061290681611b56565b92915050565b60006020828403121561292257612921611b20565b5b6000612930848285016128f7565b91505092915050565b7f4552433732313a206d696e7420746f20746865207a65726f2061646472657373600082015250565b600061296f602083611bf0565b915061297a82612939565b602082019050919050565b6000602082019050818103600083015261299e81612962565b9050919050565b7f4552433732313a20746f6b656e20616c7265616479206d696e74656400000000600082015250565b60006129db601c83611bf0565b91506129e6826129a5565b602082019050919050565b60006020820190508181036000830152612a0a816129ce565b905091905056fea2646970667358221220e73b18e8c5ce52ca0f4575881fafff755aa697df4781ebb1c9dff526b3629dd264736f6c63430008090033",
  "linkReferences": {},
  "deployedLinkReferences": {}
}